{
  "address": "0x4C28fC6074931469d1af54D7dCf2bE5f9655a142",
  "abi": [
    {
      "inputs": [
        {
          "internalType": "string",
          "name": "_url",
          "type": "string"
        }
      ],
      "name": "addFile",
      "outputs": [],
      "stateMutability": "nonpayable",
      "type": "function"
    },
    {
      "inputs": [
        {
          "internalType": "address",
          "name": "_user",
          "type": "address"
        }
      ],
      "name": "getFiles",
      "outputs": [
        {
          "internalType": "string[]",
          "name": "",
          "type": "string[]"
        }
      ],
      "stateMutability": "view",
      "type": "function"
    },
    {
      "inputs": [
        {
          "internalType": "address",
          "name": "_user",
          "type": "address"
        }
      ],
      "name": "grantAccess",
      "outputs": [],
      "stateMutability": "nonpayable",
      "type": "function"
    },
    {
      "inputs": [
        {
          "internalType": "address",
          "name": "viewer",
          "type": "address"
        }
      ],
      "name": "revokeAccess",
      "outputs": [],
      "stateMutability": "nonpayable",
      "type": "function"
    }
  ],
  "transactionHash": "0x568a50ed3c15257f2033fd1d75670a30133c934e9a9a240855e2d5ca2d7f6862",
  "args": [],
  "numDeployments": 2,
  "solcInputHash": "7d6277a8879d476df3dfc71f9a5b01c8",
  "bytecode": "0x608060405234801561001057600080fd5b50610eb5806100206000396000f3fe608060405234801561001057600080fd5b506004361061004c5760003560e01c80630ae5e73914610051578063433bf37b1461006d57806385e685311461009d578063eb9b9b64146100b9575b600080fd5b61006b600480360381019061006691906106f4565b6100d5565b005b610087600480360381019061008291906106f4565b61025f565b604051610094919061087c565b60405180910390f35b6100b760048036038101906100b291906106f4565b61043f565b005b6100d360048036038101906100ce91906109d3565b6105ca565b005b60008060003373ffffffffffffffffffffffffffffffffffffffff1673ffffffffffffffffffffffffffffffffffffffff1681526020019081526020016000208054905011610159576040517f08c379a000000000000000000000000000000000000000000000000000000000815260040161015090610a9f565b60405180910390fd5b600073ffffffffffffffffffffffffffffffffffffffff168173ffffffffffffffffffffffffffffffffffffffff16036101c8576040517f08c379a00000000000000000000000000000000000000000000000000000000081526004016101bf90610b0b565b60405180910390fd5b60018060003373ffffffffffffffffffffffffffffffffffffffff1673ffffffffffffffffffffffffffffffffffffffff16815260200190815260200160002060008373ffffffffffffffffffffffffffffffffffffffff1673ffffffffffffffffffffffffffffffffffffffff16815260200190815260200160002060006101000a81548160ff02191690831515021790555050565b60608173ffffffffffffffffffffffffffffffffffffffff163373ffffffffffffffffffffffffffffffffffffffff1614806103215750600160003373ffffffffffffffffffffffffffffffffffffffff1673ffffffffffffffffffffffffffffffffffffffff16815260200190815260200160002060008373ffffffffffffffffffffffffffffffffffffffff1673ffffffffffffffffffffffffffffffffffffffff16815260200190815260200160002060009054906101000a900460ff165b61032a57600080fd5b6000803373ffffffffffffffffffffffffffffffffffffffff1673ffffffffffffffffffffffffffffffffffffffff168152602001908152602001600020805480602002602001604051908101604052809291908181526020016000905b828210156104345783829060005260206000200180546103a790610b5a565b80601f01602080910402602001604051908101604052809291908181526020018280546103d390610b5a565b80156104205780601f106103f557610100808354040283529160200191610420565b820191906000526020600020905b81548152906001019060200180831161040357829003601f168201915b505050505081526020019060010190610388565b505050509050919050565b60008060003373ffffffffffffffffffffffffffffffffffffffff1673ffffffffffffffffffffffffffffffffffffffff16815260200190815260200160002080549050116104c3576040517f08c379a00000000000000000000000000000000000000000000000000000000081526004016104ba90610a9f565b60405180910390fd5b600073ffffffffffffffffffffffffffffffffffffffff168173ffffffffffffffffffffffffffffffffffffffff1603610532576040517f08c379a000000000000000000000000000000000000000000000000000000000815260040161052990610b0b565b60405180910390fd5b6000600160003373ffffffffffffffffffffffffffffffffffffffff1673ffffffffffffffffffffffffffffffffffffffff16815260200190815260200160002060008373ffffffffffffffffffffffffffffffffffffffff1673ffffffffffffffffffffffffffffffffffffffff16815260200190815260200160002060006101000a81548160ff02191690831515021790555050565b600081511161060e576040517f08c379a000000000000000000000000000000000000000000000000000000000815260040161060590610bd7565b60405180910390fd5b6000803373ffffffffffffffffffffffffffffffffffffffff1673ffffffffffffffffffffffffffffffffffffffff1681526020019081526020016000208190806001815401808255809150506001900390600052602060002001600090919091909150908161067e9190610dad565b5050565b6000604051905090565b600080fd5b600080fd5b600073ffffffffffffffffffffffffffffffffffffffff82169050919050565b60006106c182610696565b9050919050565b6106d1816106b6565b81146106dc57600080fd5b50565b6000813590506106ee816106c8565b92915050565b60006020828403121561070a5761070961068c565b5b6000610718848285016106df565b91505092915050565b600081519050919050565b600082825260208201905092915050565b6000819050602082019050919050565b600081519050919050565b600082825260208201905092915050565b60005b8381101561078757808201518184015260208101905061076c565b83811115610796576000848401525b50505050565b6000601f19601f8301169050919050565b60006107b88261074d565b6107c28185610758565b93506107d2818560208601610769565b6107db8161079c565b840191505092915050565b60006107f283836107ad565b905092915050565b6000602082019050919050565b600061081282610721565b61081c818561072c565b93508360208202850161082e8561073d565b8060005b8581101561086a578484038952815161084b85826107e6565b9450610856836107fa565b925060208a01995050600181019050610832565b50829750879550505050505092915050565b600060208201905081810360008301526108968184610807565b905092915050565b600080fd5b600080fd5b7f4e487b7100000000000000000000000000000000000000000000000000000000600052604160045260246000fd5b6108e08261079c565b810181811067ffffffffffffffff821117156108ff576108fe6108a8565b5b80604052505050565b6000610912610682565b905061091e82826108d7565b919050565b600067ffffffffffffffff82111561093e5761093d6108a8565b5b6109478261079c565b9050602081019050919050565b82818337600083830152505050565b600061097661097184610923565b610908565b905082815260208101848484011115610992576109916108a3565b5b61099d848285610954565b509392505050565b600082601f8301126109ba576109b961089e565b5b81356109ca848260208601610963565b91505092915050565b6000602082840312156109e9576109e861068c565b5b600082013567ffffffffffffffff811115610a0757610a06610691565b5b610a13848285016109a5565b91505092915050565b600082825260208201905092915050565b7f4f6e6c792066696c65206f776e65722063616e20706572666f726d207468697360008201527f20616374696f6e00000000000000000000000000000000000000000000000000602082015250565b6000610a89602783610a1c565b9150610a9482610a2d565b604082019050919050565b60006020820190508181036000830152610ab881610a7c565b9050919050565b7f496e76616c696420766965776572206164647265737300000000000000000000600082015250565b6000610af5601683610a1c565b9150610b0082610abf565b602082019050919050565b60006020820190508181036000830152610b2481610ae8565b9050919050565b7f4e487b7100000000000000000000000000000000000000000000000000000000600052602260045260246000fd5b60006002820490506001821680610b7257607f821691505b602082108103610b8557610b84610b2b565b5b50919050565b7f696e76616c69642075726c000000000000000000000000000000000000000000600082015250565b6000610bc1600b83610a1c565b9150610bcc82610b8b565b602082019050919050565b60006020820190508181036000830152610bf081610bb4565b9050919050565b60008190508160005260206000209050919050565b60006020601f8301049050919050565b600082821b905092915050565b600060088302610c597fffffffffffffffffffffffffffffffffffffffffffffffffffffffffffffffff82610c1c565b610c638683610c1c565b95508019841693508086168417925050509392505050565b6000819050919050565b6000819050919050565b6000610caa610ca5610ca084610c7b565b610c85565b610c7b565b9050919050565b6000819050919050565b610cc483610c8f565b610cd8610cd082610cb1565b848454610c29565b825550505050565b600090565b610ced610ce0565b610cf8818484610cbb565b505050565b5b81811015610d1c57610d11600082610ce5565b600181019050610cfe565b5050565b601f821115610d6157610d3281610bf7565b610d3b84610c0c565b81016020851015610d4a578190505b610d5e610d5685610c0c565b830182610cfd565b50505b505050565b600082821c905092915050565b6000610d8460001984600802610d66565b1980831691505092915050565b6000610d9d8383610d73565b9150826002028217905092915050565b610db68261074d565b67ffffffffffffffff811115610dcf57610dce6108a8565b5b610dd98254610b5a565b610de4828285610d20565b600060209050601f831160018114610e175760008415610e05578287015190505b610e0f8582610d91565b865550610e77565b601f198416610e2586610bf7565b60005b82811015610e4d57848901518255600182019150602085019450602081019050610e28565b86831015610e6a5784890151610e66601f891682610d73565b8355505b6001600288020188555050505b50505050505056fea2646970667358221220fa0b88bf116ad0bf39c323c2a5a2cddb07653d3146f1e6d337f9a9c4fc3a73d864736f6c634300080f0033",
  "devdoc": {
    "kind": "dev",
    "methods": {},
    "version": 1
  },
  "userdoc": {
    "kind": "user",
    "methods": {},
    "version": 1
  },
  "storageLayout": {
    "storage": [
      {
        "astId": 6,
        "contract": "contracts/Storage.sol:Storage",
        "label": "files",
        "offset": 0,
        "slot": "0",
        "type": "t_mapping(t_address,t_array(t_string_storage)dyn_storage)"
      },
      {
        "astId": 12,
        "contract": "contracts/Storage.sol:Storage",
        "label": "accessAllowance",
        "offset": 0,
        "slot": "1",
        "type": "t_mapping(t_address,t_mapping(t_address,t_bool))"
      }
    ],
    "types": {
      "t_address": {
        "encoding": "inplace",
        "label": "address",
        "numberOfBytes": "20"
      },
      "t_array(t_string_storage)dyn_storage": {
        "base": "t_string_storage",
        "encoding": "dynamic_array",
        "label": "string[]",
        "numberOfBytes": "32"
      },
      "t_bool": {
        "encoding": "inplace",
        "label": "bool",
        "numberOfBytes": "1"
      },
      "t_mapping(t_address,t_array(t_string_storage)dyn_storage)": {
        "encoding": "mapping",
        "key": "t_address",
        "label": "mapping(address => string[])",
        "numberOfBytes": "32",
        "value": "t_array(t_string_storage)dyn_storage"
      },
      "t_mapping(t_address,t_bool)": {
        "encoding": "mapping",
        "key": "t_address",
        "label": "mapping(address => bool)",
        "numberOfBytes": "32",
        "value": "t_bool"
      },
      "t_mapping(t_address,t_mapping(t_address,t_bool))": {
        "encoding": "mapping",
        "key": "t_address",
        "label": "mapping(address => mapping(address => bool))",
        "numberOfBytes": "32",
        "value": "t_mapping(t_address,t_bool)"
      },
      "t_string_storage": {
        "encoding": "bytes",
        "label": "string",
        "numberOfBytes": "32"
      }
    }
  }
}